:020000042000DA
:1000000000000120910100207F03002081030020D7
:1000100083030020850300208703002000000000E8
:100020000000000000000000000000008903002024
:100030008B030020000000008D0300208F030020B0
:1000400091030020552900209503002097030020EC
:10005000990300209B0300209D0300209F030020A4
:10006000A1030020A3030020B1070020D507002032
:10007000A9030020AB030020AD030020AF03002044
:10008000B1030020B3030020B50300200D0E0020B3
:10009000B9030020BB030020BD030020BF030020E4
:1000A000C1030020C3030020C50300202124002039
:1000B00019250020CB030020CD030020CF03002012
:1000C000D1030020D3030020D5030020D703002054
:1000D000D9030020DB030020DD030020DF03002024
:1000E000E1030020E3030020E5030020E7030020F4
:1000F000E9030020EB030020ED030020EF030020C4
:10010000F1030020F3030020F5030020F703002093
:10011000F9030020FB030020FD030020FF03002063
:10012000010400200304002005040020070400202F
:10013000090400200B0400200D0400200F040020FF
:1001400011040020130400201504002017040020CF
:10015000190400201B0400201D0400201F0400209F
:10016000210400202304002025040020270400206F
:10017000290400202B0400202D0400202F0400203F
:1001800031040020330400200000000000000000C3
:100190004FF0000BDFF8BE020068DFF8B612096806
:1001A00001F0030100F01C00142801D14BF0020BF8
:1001B000002901D04BF0010BBBF1000F05D0A7487F
:1001C000A749DFF8722200F09FF8A64880470BF09D
:1001D000020ABAF1000F0CD0DFF86E02DFF86E12DF
:1001E00002680B680FB44FF000024FF0FF0302608B
:1001F0000B609D484FF000024FF00103022808D128
:10020000DFF83A120A60DFF83E120A60DFF83212B5
:100210000B60012808D1DFF82A120A60DFF82612E5
:100220000A60DFF81A120B609048002809D1904844
:100230009049914A00F030F890489149914A00F075
:100240002BF891489149924A00F026F8914892493A
:10025000DFF8E22100F058F8BBF1000F10D08F4812
:100260008F49DFF8D62100F04FF80BF0020ABAF1FF
:10027000000F05D00FBC02600B6000BFAFF3008021
:10028000DFF820020FF2030E00474FF000004FF09E
:100290000001DFF814F2FEE72DE9F841884225D08D
:1002A000B2EB010200D5FEE740EA010313F00303BD
:1002B00002D000F01DF819E04FF000039046121133
:1002C000F7D09A421CBFF0C8F0C103F10103F8D186
:1002D00008F00F08B8F1000F08D004780C7000F196
:1002E000010001F10101B8F10108F6D1BDE8F88182
:1002F00008B54FF0000303780B7000F1010001F125
:100300000101013AF7D108BD884237D000F0030659
:10031000002E14D04FF00405A5EB06044FF008079B
:1003200007FB06F8914669FA08F9002C07D080F817
:10033000009069FA07F900F10100013CF5E74FF080
:1003400000060F46091A88460911914614461546BB
:10035000B14206D018BFA0E8340206F10106B1424E
:10036000F8D108F00F08B8F1000F07D002704FEA7B
:10037000322200F10100B8F10108F4E77047FEE70E
:10038000FEE7FEE7FEE7FEE7FEE7FEE7FEE7FEE745
:10039000FEE7FEE7FEE7FEE7FEE7FEE7FEE7FEE735
:1003A000FEE7FEE7FEE7FEE7FEE7FEE7FEE7FEE725
:1003B000FEE7FEE7FEE7FEE7FEE7FEE7FEE7FEE715
:1003C000FEE7FEE7FEE7FEE7FEE7FEE7FEE7FEE705
:1003D000FEE7FEE7FEE7FEE7FEE7FEE7FEE7FEE7F5
:1003E000FEE7FEE7FEE7FEE7FEE7FEE7FEE7FEE7E5
:1003F000FEE7FEE7FEE7FEE7FEE7FEE7FEE7FEE7D5
:10040000FEE7FEE7FEE7FEE7FEE7FEE7FEE7FEE7C4
:10041000FEE7FEE7FEE7FEE7FEE7FEE7FEE7FEE7B4
:10042000FEE7FEE7FEE7FEE7FEE7FEE7FEE7FEE7A4
:10043000FEE7FEE7704700000000A2A2A2A2008033
:100440000340088003401080034030800340348024
:1004500003403880034018080240000000F00020EC
:1004600000000120DD260020000000000000000048
:10047000000000200000002090010020B0040020B7
:10048000B004002068890020708900207089002055
:100490004093002040930020A0940020A0940020CE
:1004A00000F000201D320020B12E002000000000CE
:1004B00010B5054C237833B9044B13B10448AFF39E
:1004C00000800123237010BD409300200000000035
:1004D0003089002008B5034B1BB103490348AFF333
:1004E000008008BD000000004493002030890020F7
:1004F00080B483B000AF0346FB71FB7903F01F02A9
:10050000074997F907305B09012000FA02F26033CE
:1005100041F8232000BF0C37BD4680BC704700BFA8
:1005200000E100E080B483B000AF78600B46FB7060
:100530007B6803F070427B685B0123F07E4323F00D
:100540001F031343FA789200134403F100731A4611
:100550000123136000BF0C37BD4680BC704780B4D8
:1005600083B000AF78600B46FB707B6803F070428D
:100570007B685B0123F07E4323F01F031343FA786B
:100580009200134403F100731A460023136000BF66
:100590000C37BD4680BC704780B483B000AF786034
:1005A0000B46FB707B6803F070427B685B0123F0B5
:1005B0007E4323F01F031343FA789200134403F1A0
:1005C00000731B68DBB218460C37BD4680BC704711
:1005D00080B584B000AFF860B9601346FB71FB686A
:1005E000144A934204D0FB68134A934200D000BEE1
:1005F000FB791A46B968F86800F0A4F9FB681B6833
:10060000303303211846FFF7AAFFFB681B68343319
:1006100002211846FFF7A3FFFB681B68383300214F
:100620001846FFF79CFFFB68044A5A6200BF103768
:10063000BD4680BD2C940020EC930020250D0020A9
:1006400080B487B000AF7860396000237B617B683D
:10065000264A934204D07B68254A934200D000BECC
:100660003B68002B00D100BE7B68204A934203D038
:100670007B681F4A934233D13B68002B30D03A68E5
:100680007B6913441B78FB7327E07B681B681B7D29
:10069000BB737B685A7BBB7B1343DAB27B685A73AC
:1006A000BB7B03F02003002BEFD000233B610EE067
:1006B0007B681B68FA7B1A703B6901333B617B697D
:1006C00001337B613A687B6913441B78FB73FB7BC6
:1006D000002B02D03B690F2BEAD9FB7B002BD4D136
:1006E00000BF1C37BD4680BC704700BF2C94002063
:1006F000EC93002080B487B000AFF860B9607A60F6
:1007000000237B610023FB74FB68274A934204D0DB
:10071000FB68264A934200D000BEBB68002B00D184
:1007200000BE7B68002B00D100BEFB681E4A9342CE
:1007300003D0FB681D4A934230D1BB68002B2DD0FB
:100740007B68002B2AD0FB681B681B7DFB74FB6851
:100750005A7BFB7C1343DAB2FB685A7315E0FB68E3
:100760001A68B9687B690B441278D2B21A707B6937
:1007700001337B61FB681B681B7DFB74FB685A7B44
:10078000FB7C1343DAB2FB685A73FB7C03F0010372
:10079000002B03D07A697B689A42E0D37B691846C4
:1007A0001C37BD4680BC70472C940020EC93002081
:1007B000684620F007018D4689B500AF044800F077
:1007C000ADF900BFBD46BDE889408546704700BF12
:1007D0002C940020684620F007018D4689B500AFB3
:1007E000044800F09BF900BFBD46BDE8894085463E
:1007F000704700BFEC93002080B588B000AF7860F0
:1008000039607B684B4A934204D07B684A4A9342E2
:1008100000D000BE7B68474A934204D07B68464ABA
:10082000934240F082807B683A689A6001F066FFEC
:100830007B68404A934203D1404B1B68FB6102E056
:100840003F4B1B68FB61FB69DA003B68B2FBF3F3CB
:10085000BB61BB695B087B617B699B093B613B6951
:100860009B017A69D31AFB603B69DB01BA69D21A32
:10087000FB685B00D31AFA681344FB603B69B3F56D
:10088000803F00D300BE3B69B3F5803F4DD23B694A
:10089000012B2AD97B681B680C3307211846FFF708
:1008A00041FE3B691A0A7B681B68D2B21A717B68E9
:1008B0001B683A69D2B21A707B681B680C33072137
:1008C0001846FFF74CFE7B681B683033072118463B
:1008D000FFF728FEFB68FF2B00D900BE7B681B6872
:1008E000FA68D2B283F83C201FE07B681B680C33A7
:1008F00007211846FFF716FE3B691A0A7B681B683A
:10090000D2B21A717B681B683A69D2B21A707B68DE
:100910001B680C3307211846FFF721FE7B681B6814
:10092000303307211846FFF71AFE00BF2037BD46B7
:1009300080BD00BF2C940020EC930020748900201F
:100940007889002080B584B000AFF860B9601346A4
:10095000FB71FB686D4A934204D0FB686C4A93427A
:1009600000D000BEFB68694A934216D1FB684FF085
:1009700080421A60FB680A221A71664B9B6C654ABA
:1009800043F0800393640A20FFF7B2FD614B9B6C38
:10099000604A23F08003936414E0FB685E4A1A60A7
:1009A000FB680B221A715B4B9B6C5A4A43F48073B1
:1009B00093640B20FFF79CFD564B9B6C554A23F428
:1009C00080739364FB681B6800221A71FB681B68C4
:1009D00000221A72FB681B68083301211846FFF7D2
:1009E000A1FDFB681B68083302211846FFF79AFD3A
:1009F000FB681B68083300211846FFF793FDFB686E
:100A00001B68103304211846FFF7A9FDFB681B681B
:100A1000103305211846FFF7A2FDFB681B6834332D
:100A200001211846FFF79BFDFB681B68343300214A
:100A30001846FFF794FDFB681B6838330121184600
:100A4000FFF78DFDFB681B68303305211846FFF763
:100A500086FDFB681B68303306211846FFF77FFDD3
:100A6000FB681B68303307211846FFF778FDFB68E9
:100A70001B68383303211846FFF771FDFB681B68BC
:100A8000002283F84420FB681B68002283F848207A
:100A9000FB681B68002283F84C20B968F868FFF7F0
:100AA000ABFEFB681B68FA791A73FB68BA689A6038
:100AB000FB68FA791A73FB6800225A61FB6800220E
:100AC0001A61FB6800229A61FB6800221A62FB68C7
:100AD00000225A62FB680022DA61FB6800229A62F7
:100AE000FB680022DA62FB6800221A63FB680022BE
:100AF0005A63FB6800229A63FB680022DA63FB6892
:100B000000225A7300BF1037BD4680BD2C940020D0
:100B1000EC930020008003400000014080B584B0C9
:100B200000AF78607B687D4A934204D07B687C4A42
:100B3000934200D000BE7B68784A934204D07B6821
:100B4000774A934240F0DA807B681B681B7ADBB2FD
:100B500003F00F03FB73FB7B0C2B00F2CD8001A293
:100B600052F823F0990B0020F90C0020B70B00205D
:100B7000110C0020D50B0020F90C0020F30B0020F5
:100B8000F90C0020F90C0020F90C0020F90C0020D1
:100B9000F90C0020D50B00207B689B6A002B00D14C
:100BA00000BE7B689B6A002B00F0AA807B689B6A72
:100BB00078689847A4E07B685B6A002B00D100BE90
:100BC0007B685B6A002B00F09D807B685B6A7868BD
:100BD000984797E07B681B6A002B00D100BE7B68BA
:100BE0001B6A002B00F090807B681B6A786898472E
:100BF0008AE07B68DB69002B00D100BE7B68DB6983
:100C0000002B00F083807B68DB69786898477DE083
:100C10007B681B68283300211846FFF7BDFC03469C
:100C2000002B0CD07B68DB6A002B00D100BE7B68F8
:100C3000DB6A002B03D07B68DB6A786898477B68A7
:100C40001B68283301211846FFF7A6FC0346002B3A
:100C50000CD07B681B6B002B00D100BE7B681B6B2C
:100C6000002B03D07B681B6B786898477B681B68F8
:100C7000283302211846FFF78FFC0346002B0CD0C7
:100C80007B685B6B002B00D100BE7B685B6B002B2D
:100C900003D07B685B6B786898477B681B68283358
:100CA00003211846FFF778FC0346002B0CD07B6825
:100CB0009B6B002B00D100BE7B689B6B002B03D08D
:100CC0007B689B6B786898477B681B682833042196
:100CD0001846FFF761FC0346002B19D07B68DB6BDD
:100CE000002B00D100BE7B68DB6B002B10D07B6833
:100CF000DB6B786898470BE000BE0AE000BF08E0B5
:100D000000BF06E000BF04E000BF02E000BF00E05B
:100D100000BF00BF1037BD4680BD00BF2C9400202F
:100D2000EC93002080B586B000AF78607B68354AD0
:100D3000934204D07B68344A934200D000BE7B6863
:100D40001B69002B00D100BE7B685B69002B00D1C2
:100D500000BE7B682B4A934203D07B682A4A9342A9
:100D60004CD17B681B69002B48D07B685B69002BEA
:100D700044D07B681B681B7DFB737B685A7BFB7BC5
:100D80001343DAB27B685A73FB7B03F02003002B1A
:100D900024D010233B617B685A697B689B69D31A16
:100DA000BB60BB680F2B01D8BB683B6100237B6134
:100DB00010E07B681A697B689B691A447B681B6832
:100DC00012781A707B689B695A1C7B689A617B69F0
:100DD00001337B617A693B699A42EAD37B689A69FD
:100DE0007B685B699A4209D17B6800225A617B6803
:100DF0001B68043301211846FFF7B1FB00BF183709
:100E0000BD4680BD2C940020EC93002080B582B0BC
:100E100000AF0F4B5B68FB710D4B9B68DAB2FB793F
:100E20001340FB71FB7903F00203BB71BB79002B0C
:100E300001D000F0E7F8FB7903F001037B717B79C7
:100E4000002B01D000F006F800BF0837BD4680BD7A
:100E50000060014080B584B000AF634B1B78052B68
:100E60006DD0052B00F3AF80012B02D0022B39D0BF
:100E7000A9E05E4B1B889BB2002B2FD05C4B1B68FC
:100E80005A4A128892B21146184600F009FA786060
:100E9000564B1B889BB21A467B6893420FD2534B2A
:100EA0001B889AB27B689BB2D31A9AB24F4B1A80B6
:100EB0004F4B1A687B6813444D4A136090E04B4BCC
:100EC00000221A804B4B1B68002B03D0464B02229A
:100ED0001A7085E0444B03221A7081E000BE00F0D6
:100EE000B9F97DE0434B1B68002B24D0424B1B68B3
:100EF000404A12681146184600F0D2F9B8603D4BDE
:100F00001B68BA689A420CD23A4B1A68BB68D31A6B
:100F1000384A1360384B1A68BB681344364A13606A
:100F20005EE0364B9B68354A23F0010393602E4BFD
:100F300003221A7054E000BE00F08CF950E02D4BF3
:100F40001B68002B1BD12E4B1B68002B14D02C4B85
:100F50001B68294898470346264A1360254B1B689F
:100F6000002B0CD1254B9B68244A23F0010393608E
:100F70001D4B03221A7002E000BE00F06BF91D4BFE
:100F80001B68002B09D11D4B9B681C4A23F00103F1
:100F90009360154B03221A7022E0174B1B68154A09
:100FA00012681146184600F07BF9F860114B1A6878
:100FB000FB68D31A0F4A13600F4B1A68FB6813447F
:100FC0000D4A13600CE00D4B9B680C4A23F00103A3
:100FD0009360002000F01EF9034B00221A7000BF3E
:100FE00000BF1037BD4680BD819300206493002070
:100FF000609300206C930020689300200060014003
:101000007C93002080B584B000AF7C4B1B69FB81D2
:10101000FB8923F4FF4323F07F03BB81FB89FB7231
:10102000774B1B78052B00F2D68001A252F823F0F3
:1010300049100020C3110020C3110020A11000207E
:10104000EF10002097110020BB89002B00F0CA8010
:10105000FB7AF12B06D0FB7A7B717B79184600F086
:101060004FF9BFE0674B00221A80674B1B68654A47
:10107000128892B21344FA7A1A70624B1B889BB2A0
:1010800001339AB25F4B1A805F4B1B685D4A12882E
:1010900092B2134400221A70594B04221A70A1E034
:1010A000BB89002B00F0A080FB7AFB71574B1B78AB
:1010B000DBB2FA799A4215D1524B00221A80524B78
:1010C0001B68504A128892B21344FA791A704D4B39
:1010D0001B889BB201339AB24A4B1A80484B0422B8
:1010E0001A7081E0FB79184600F00AF97CE0BB89B0
:1010F000002B06D0FB7A3B723B7A184600F000F9D1
:1011000074E0414B1A683F4B1B889BB2013B134470
:101110001B78F12B16D13C4B1B683A4A128892B2CD
:101120001344FA7A1A70384B1A68364B1B889BB2F4
:10113000013B13441B78184600F0E2F8304B0022C4
:101140001A7053E02F4B1B889AB2314B1B889A427E
:1011500010D2FB7A7B722C4B1B682A4A128892B2FF
:1011600013447A7A1A70274B1B889BB201339AB2C8
:10117000244B1A80234B1B889AB2254B1B889A421A
:1011800034D1204B1B889BB2184600F043F81C4B0F
:1011900000221A702AE0BB89002B0BD11A4B1B6866
:1011A0000133FA7A1A70022000F034F8144B00224E
:1011B0001A701EE0FB7ABB72BB7A184600F0A0F8EA
:1011C00017E0BB89002B13D0FB7ABB71BB791846A3
:1011D00000F096F80CE0002000F01CF8084B00220C
:1011E0001A7006E000BF04E000BF02E000BF00E0AC
:1011F00000BF00BF1037BD4680BD00BF006001408A
:101200008193002076930020709300205C9300204F
:101210007493002080B582B000AF0346FB800A4B78
:101220001B68002B0CD0084B1B68084A1268F98811
:1012300010469847044B00221A60054B00221A7092
:1012400000BF0837BD4680BD789300207093002012
:101250008093002080B582B000AF0E4B1B78DBB2CC
:10126000002B13D00C4B1B889BB21846FFF7D2FF04
:101270000A4B1B68094A43F001031360074B1B68C4
:1012800003F001037B607B68002BF7D100BF0837B8
:10129000BD4680BD80930020769300200060014011
:1012A00080B485B000AF78603960144B1B68134A76
:1012B00023F0040313600023FB60104B5B6803F012
:1012C0000103BB600DE07A68FB6813441A780B4B8E
:1012D0001A61FB680133FB60084B5B6803F0010394
:1012E000BB60BB68002B03D0FA683B689A42EAD324
:1012F000FB6818461437BD4680BC7047006001404B
:1013000080B582B000AF0346FB71064B1B68002B13
:1013100004D0044B1B68FA791046984700BF083781
:10132000BD4680BD8493002080B483B000AF0346E7
:10133000FB71FB7903F01F02064997F907305B093F
:10134000012000FA02F241F8232000BF0C37BD460D
:1013500080BC704700E100E080B483B000AF03467A
:10136000FB71FB7903F01F02074997F907305B090E
:10137000012000FA02F2203341F8232000BF0C378D
:10138000BD4680BC704700BF00E100E080B483B080
:1013900000AF0346FB71FB7903F01F02074997F981
:1013A00007305B09012000FA02F2603341F8232084
:1013B00000BF0C37BD4680BC704700BF00E100E0B5
:1013C00080B582B000AF03463960FB713B68B3F172
:1013D000806F00D300BE3B68B3F1806F2ED200F067
:1013E000ABF8184B08221A6000F0D9F80120FFF77B
:1013F000CDFF00F0DBF8144BD3F88830124A43F0ED
:101400000103C2F88830FB79012B03D10D4B012277
:101410005A6002E00B4B00225A600A4B0022DA604D
:10142000084B00221A61074B00225A61054B00222B
:101430009A6100F097F8034A3B68936000BF083751
:10144000BD4680BD007001400080034080B584B07F
:1014500000AF0346FB710E4B5A68FB799A4212D0DB
:101460000B4B1B6803F00103FB60FB68002B07D0EC
:1014700000F062F8064AFB79536000F051F802E090
:10148000034AFB79536000BF1037BD4680BD00BFE3
:101490000070014080B586B000AFC7E90201134675
:1014A000FB711E4B5B68DBB203F00103BB75BB7DB8
:1014B000002B00D000BEBB7D002B2AD1174B082289
:1014C0001A60164B4FF0FF325A61144B4FF0FF3247
:1014D0009A61124ABB68D360D7E902014FF000025B
:1014E0004FF000030A0000230C4913460B61BB7D3B
:1014F00043F00A03FB75FB79012B03D1FB7D43F01D
:101500000403FB75FB7D1846FFF7A0FF034B042285
:101510001A6000BF1837BD4680BD00BF0070014093
:1015200080B400AF034B01221A6000BFBD4680BCEF
:10153000704700BF0070014080B483B000AF084B1B
:1015400002221A60064B1B6803F001037B607B6874
:10155000002BF7D100BF00BF0C37BD4680BC7047E1
:101560000070014080B483B000AF084B10221A60B5
:10157000064B1B6803F020037B607B68002BF7D1D0
:1015800000BF00BF0C37BD4680BC704700700140F3
:1015900080B500AF0120FFF7C7FE00BF80BD80B55A
:1015A00000AF0120FFF7D8FE00BF80BD80B483B03C
:1015B00000AF074B4FF480721A60054B1B687B60CD
:1015C0007B6801337B6000BF0C37BD4680BC704731
:1015D0000070014080B58EB002AFF860B9607A60EB
:1015E0003B60002387F82E30704B00221A70704B3E
:1015F000DB687B626E4A7B6A43F4FF53D360FB680F
:101600006C4A934210D2FB686B4A934203D9FB6841
:10161000B3F1C04F08D3BB68002B05D07B68002B0B
:1016200002D03B68022B03D9072387F82F30A4E0B0
:101630005F4BD3F84C313B623B6A4FF60202934258
:1016400003D03B6A5D4A934201D100233B60FB68B3
:10165000C3F31203FB617968F86900F0B9FB034634
:1016600087F82F3097F82F30002B40F086804F4BB3
:101670001B78012B07D13B68012B04D100233B6071
:10168000042387F82E303B6A9BB23B623B6A4FF6DD
:101690000702934204D03B6A4FF60602934212D1EE
:1016A000FB69B3F5802F05D2FA697B681344B3F563
:1016B000802F16D93B68012B13D100233B600423F4
:1016C00087F82E300DE03B6A4FF60802934209D1AD
:1016D0003B68012B06D100233B60042387F82E30A2
:1016E00000E000BF7968F86900F0BAF9034687F8AE
:1016F0002F3097F82F30002B3FD17B68BB6237E04B
:1017000000233B617A68BB6AD21AFB68D0187A68FA
:10171000BB6AD31ABA68D11807F1100300933B686B
:10172000BA6A00F025FAB8613A69254B13407B612B
:101730007B69002B06D03B69184600F043F803464E
:1017400087F82F3097F82F30002B03D097F82F30E1
:10175000052B0BD1BA6ABB699A4204D9BA6ABB6934
:10176000D31ABB6204E00023BB6201E00023BB622A
:10177000BB6A002BC4D100F0A3F90C4B00221A70F5
:101780000B4A7B6AD36097F82F30002B07D197F86C
:101790002E30042B03D197F82E3087F82F3097F88E
:1017A0002F3018463037BD4680BD00BF88930020DB
:1017B00000800340FFFF0760FEFF070002F8010002
:1017C0003E00040080B485B000AF78607B6803F40D
:1017D0008023002B02D00123FB7319E07B6803F008
:1017E0001003002B02D00323FB7311E07B6803F08E
:1017F0000E03002B02D00223FB7309E07B6803F089
:101800002003002B02D00523FB7301E00023FB73B0
:10181000FB7B18461437BD4680BC704780B58EB040
:1018200000AF78603960664BDB687B62644A7B6A34
:1018300043F4FF53D3607B68624A93420AD27B68C9
:10184000614A934203D97B68B3F1C04F02D33B682E
:10185000002B03D1072387F83730A8E07B68C3F358
:1018600012033B623968386A00F0B2FA034687F81F
:10187000373097F83730002B40F099803B6ADB090E
:10188000FB613A683B6A1344013BDB09BB61396881
:10189000386A00F0E5F8034687F8373097F83730B4
:1018A000002B40F08480FB693B6372E03B6BB3F537
:1018B000006F02D30123FB6201E00023FB62434A75
:1018C000FB6A52F82330D3F8203103F48023002B35
:1018D0000DD03E4AFB6A52F82330D3F858213B49D9
:1018E000FB6A51F8233042F00202C3F858213B6BE7
:1018F000DB017B617B6903F1C0433B610023BB6279
:101900000FE0BB6A9B003A691A443149FB6A51F8FF
:1019100023301168BA6A203243F82210BB6A0133BF
:10192000BB62BB6A1F2BECD9284AFB6A52F82330F2
:101930000022C3F840217B6923F0985323F07F03F2
:101940002249FA6A51F8222043F09853C2F84831EC
:101950007B6923F0006323F07F031C49FA6A51F886
:10196000222043F00063C2F84831F86A00F0DCF846
:10197000F860FA68174B1340BB60BB68002B05D0BA
:10198000F868FFF71FFF034687F837303B6B0133DA
:101990003B633A6BBB699A4207D897F83730002B04
:1019A00084D097F83730052B80D000F089F8044AAE
:1019B0007B6AD36097F8373018463837BD4680BD0C
:1019C00000800340FFFF0760FEFF07000883002040
:1019D000108300203E00040080B487B000AF786020
:1019E0000023FB751B4B1B681B09FB601A4A7B68B5
:1019F00052F823300122C3F8FC21174A7B6852F8C1
:101A00002330D3F8FC313B613B69052B07D0FB68E1
:101A1000013BFB60FB68002B01D10623FB753B6992
:101A2000052B02D0FB7D002BE0D0FB7D002B0AD1E3
:101A300001227B6802FA03F3DAB2084B1B781343E6
:101A4000DAB2064B1A70FB7D18461C37BD4680BCC7
:101A5000704700BF70890020088300208993002010
:101A600080B584B000AF786039607B68B3F5802FB3
:101A70001BD20020FFF7B0FF0346FB73FB7B002B5C
:101A800018D13A687B681344013BBB60BB68B3F56F
:101A9000802F0FD30120FFF79FFF0346FB73FB7BD3
:101AA000062B07D100F00CF804E00120FFF794FFAB
:101AB0000346FB73FB7B18461037BD4680BD000014
:101AC00080B483B000AF154B1B7803F00103FB71AA
:101AD000FB79002B0AD0124B0022C3F8FC210F4BDC
:101AE0001B7823F00103DAB20C4B1A700B4B1B78F6
:101AF00003F00203FB71FB79002B0AD0094B002293
:101B0000C3F8FC21054B1B7823F00203DAB2034B28
:101B10001A7000BF0C37BD4680BC70478993002007
:101B20000000086000000C6080B487B000AF7860EF
:101B300000237B6110E00D4A7B6852F82330D3F814
:101B40002031FB60FB6803F001033B613B69002B24
:101B5000F1D07B6901337B617B69012BEBD9FB6899
:101B600018461C37BD4680BC704700BF0883002064
:101B700080B58AB000AFF860B9607A603B603B6BBB
:101B800000221A60FB68C3F312037B627B6AB3F521
:101B9000002F00D300BE7968786A00F073F8F8610E
:101BA0007B6AB3F5002F63D27B6AB3F5802F02D234
:101BB00000233B6205E001233B627B6AA3F580239F
:101BC0007B622E4A3B6A52F82330D3F8203103F46B
:101BD0008023002B0DD0294A3B6A52F82330D3F8DA
:101BE000582126493B6A51F8233042F00202C3F8DB
:101BF00058217B6A3A6AF969B86800F061F81F4AAF
:101C00003B6A52F823303A68C3F840217B6A23F0DC
:101C1000006323F07F0319493A6A51F8222043F008
:101C20000063C2F84831386AFFF77EFF03467B61E4
:101C30007A69134B1340BB61BB69002B03D07A69EF
:101C40003B6B1A6014E07B6A23F0805323F07F0320
:101C50000A493A6A51F8222043F08053C2F84831C9
:101C6000386AFFF761FF03467B617A693B6B1A6054
:101C7000FB6918462837BD4680BD00BF0883002099
:101C80001E00040080B485B000AF786039607B68C6
:101C9000DB090133FB607A683B681344DB09BB60F6
:101CA000BA68FB689A4205D37B6803F07F03C3F1EF
:101CB00080033B603B6818461437BD4680BC7047C4
:101CC00080B48BB000AFF860B9607A603B60BB68ED
:101CD000802B55D07B689A043B68134403F1C043C2
:101CE00023F07F03FB613B6803F07F039B083B62AB
:101CF0003B6803F00303002B02D03B6A01333B62D5
:101D000000237B620FE07B6A9B00FA691A442E492C
:101D10007B6851F8233011687A6A203243F8221028
:101D20007B6A01337B627B6A1F2B03D87A6A3B6A2A
:101D30009A42E8D33A68BB68134403F07F039B08D8
:101D4000BB61BB69C3F120033B6200237B6213E0EC
:101D5000BA697B6A13449B00FA69D1181A4A7B68F6
:101D600052F82330B8697A6A02440968203243F88D
:101D700022107B6A01337B627A6A3B6A9A42E7D31C
:101D80003B6803F07F037B6100237B6211E0FA680C
:101D90007B6AD1180D4A7B6852F8232078697B6AE8
:101DA0000344097813440A4683F880207B6A013390
:101DB0007B627A6ABB689A42E9D300BF00BF2C37C6
:101DC000BD4680BC704700BF108300200883002000
:101DD00080B58CB000AF786039600023BB6200230F
:101DE00087F827303B68002B02D03B68013BBB6281
:101DF000854BD3F84C319BB23B620023FB623B6ABC
:101E00004FF60502934277D17F4BD3F8442149F630
:101E100099131340FB61FB6949F69912934240D034
:101E2000FB6903F00F03BB61FB691B0903F00F03A0
:101E30007B61BB69082B08D07B69082B05D0BB6987
:101E4000002B02D07B69002B02D1704B01221A704B
:101E5000BB69092B08D07B68B3F5805F04D2396871
:101E6000B86900F01DFAF8627B69092B19D0FB6A8A
:101E7000002B16D17B68B3F5F83F03D37B68B3F52D
:101E8000003F09D37A68BB6A1344B3F5F83F08D31F
:101E90007B68B3F5F83F04D23968786900F000FA3E
:101EA000F862FB6A012B03D1012387F82730ECE1AC
:101EB0007A68BB6A1344B3F5003F03D3072387F85E
:101EC0002730E2E17B68B3F5FC3F03D37B68B3F5D1
:101ED000003F09D37A68BB6A1344B3F5FC3F07D3CC
:101EE0007B68B3F5FC3F03D2012387F82730CCE1B0
:101EF000002387F82730C8E13B6A4FF6020293427D
:101F000009D03B6A4FF60302934204D03B6A4FF676
:101F1000040293427CD13C4BD3F8442149F69913F7
:101F20001340FB61FB6949F69912934240D0FB696B
:101F300003F00F03BB61FB691B0903F00F037B6117
:101F4000BB69082B08D07B69082B05D0BB69002B27
:101F500002D07B69002B02D12C4B01221A70BB6985
:101F6000092B08D07B68B3F5805F04D23968B86963
:101F700000F096F9F8627B69092B19D0FB6A002BF7
:101F800016D17B68B3F57C3F03D37B68B3F5802F14
:101F900009D37A68BB6A1344B3F57C3F08D37B68E6
:101FA000B3F57C3F04D23968786900F079F9F862BA
:101FB000FB6A012B03D1012387F8273065E17A689A
:101FC000BB6A1344B3F5802F03D3072387F8273068
:101FD0005BE17B68B3F57E3F03D37B68B3F5802F6D
:101FE00009D37A68BB6A1344B3F57E3F07D37B6895
:101FF000B3F57E3F03D2012387F8273045E1002364
:1020000087F8273041E100BF00800340889300201B
:102010003B6A4FF60802934272D19F4BD3F844219A
:1020200049F699131340FB61FB6949F699129342F3
:102030003BD0FB6903F00F03BB61FB691B0903F095
:102040000F037B61FB691B0A03F00F033B61FB6914
:102050001B0B03F00F03FB60BB69092B08D07B68E7
:10206000B3F5805F04D23968B86900F019F9F862F5
:10207000FB68092B19D0FB6A002B16D17B68B3F5DE
:10208000743F03D37B68B3F5783F09D37A68BB6AA2
:102090001344B3F5743F08D37B68B3F5743F04D29F
:1020A0003968F86800F0FCF8F862FB6A012B03D18C
:1020B000012387F82730E8E07A68BB6A1344B3F558
:1020C000802F03D3072387F82730DEE07B68B3F542
:1020D000783F03D37B68B3F5802F09D37A68BB6A56
:1020E0001344B3F5783F07D37B68B3F5783F03D249
:1020F000012387F82730C8E0002387F82730C4E0A1
:102100003B6A4FF60702934205D03B6A4FF6060240
:10211000934240F0BA80604BD3F8442149F69913BA
:102120001340FB61FB6949F69912934200F08380EA
:10213000FB6903F00F03BB61FB691B0903F00F038D
:102140007B61FB691B0A03F00F033B61FB691B0BFF
:1021500003F00F03FB60BB69082B02D0BB69002BA7
:1021600006D17B68B3F5802F02D24C4B01221A7046
:10217000BB69092B08D07B68B3F5805F04D239684E
:10218000B86900F08DF8F862FB68092B19D0FB6A7A
:10219000002B16D17B68B3F5F62F03D37B68B3F51C
:1021A000F82F09D37A68BB6A1344B3F5F62F08D326
:1021B0007B68B3F5F62F04D23968F86800F070F840
:1021C000F8623B69092B19D0FB6A002B16D17B689A
:1021D000B3F5F82F03D37B68B3F5FA2F09D37A68E8
:1021E000BB6A1344B3F5F82F08D37B68B3F5F82F17
:1021F00004D23968386900F053F8F8627B69092B1A
:1022000019D0FB6A002B16D17B68B3F5FA2F03D3E4
:102210007B68B3F5FC2F09D37A68BB6A1344B3F526
:10222000FA2F08D37B68B3F5FA2F04D2396878699E
:1022300000F036F8F862FB6A012B03D1012387F81E
:10224000273022E07A68BB6A1344B3F5002F03D32A
:10225000072387F8273018E07B68B3F5FC2F03D3FA
:102260007B68B3F5002F09D37A68BB6A1344B3F5D2
:10227000FC2F07D37B68B3F5FC2F03D2012387F82B
:10228000273002E0002387F8273097F827301846D8
:102290003037BD4680BD00BF0080034088930020DA
:1022A00080B485B000AF786039607B68012B05D1C0
:1022B0003B68002B02D10023FB6001E00123FB609F
:1022C000FB6818461437BD4680BC704780B485B0A3
:1022D00000AFF860B9607A60FB704D484D4B1A68EA
:1022E000F97813469B001344DB01034403F5E273C2
:1022F00019604949474B1A6813469B0013449B00D9
:102300000B440433FA681A604349424B1A68134677
:102310009B0013449B000B440833BA681A603E4983
:102320003C4B1A6813469B0013449B000B440C3330
:102330001B683948374A11681A0C12040B469B0077
:102340000B449B0003440C331A607B68B3F5803F59
:102350000FD97B68A3F58033304A1361BB6803F55E
:1023600080332E4AD360FB6803F580332B4A936099
:102370001AE02949274B1A6813469B0013449B0017
:102380000B440C331B687A6892B211462248214AEA
:102390001268194313469B0013449B0003440C33FB
:1023A00019601E4B00221A611B491A4B1A6813460A
:1023B0009B0013449B000B440C331B681648154AC2
:1023C000126843F4E00113469B0013449B0003444E
:1023D0000C3319600E490F4B1A6813469B001344C7
:1023E000DB010B4403F5E07301221A600849094B35
:1023F0001A6813469B001344DB010B4403F5E67394
:1024000000221A6000BF1437BD4680BC704700BF71
:1024100000002842A4930020004001408C9300203B
:10242000684620F007018D4689B500AF354A364B26
:102430001B6803F52873012142F823103349324BFE
:102440001A6813469B0013449B000B440C331B6813
:102450002E482D4A126823F4E00113469B001344D2
:102460009B0003440C331960274B1B680133264A39
:102470001360254B1B68042B02D1234B00221A60EA
:10248000234B1B69002B17D0224B1B68042B03D155
:10249000204B00221A6004E01E4B1B6801331D4ACA
:1024A00013601B4B98681A4BD968194B1A69184B63
:1024B0001B7DFFF70BFF1EE01449134B1A681346F0
:1024C0009B0013449B000B440C331B6803F4E00394
:1024D000002B10D10C4B00221A600E4B00221A6008
:1024E0000B4B01221A700A4B5B68002B03D0084B80
:1024F0005B680120984700BFBD46BDE8894085461E
:10250000704700BF00002842A8930020004001400F
:102510008C930020A4930020684620F007018D468C
:1025200081B583B000AF394B1B683B603B6803F457
:1025300070633B603B68002B2FD03549354B1A68E0
:1025400013469B001344DB010B4403F502731B6825
:10255000002B0AD0304B02221A702F4B5B68002BE5
:1025600003D02D4B5B68022098472949294B1A68F4
:1025700013469B001344DB010B4403F503731B68F4
:10258000002B0AD0244B03221A70234B5B68002BCC
:1025900003D0214B5B68032098471C4B1B683B60B2
:1025A0003B6803F470433B603B68002B0AD01A4B36
:1025B00004221A70184B5B68002B03D0164B5B6823
:1025C0000420984700237B6014E011497A68134681
:1025D0009B001344DB010B4403F5E47301221A60F2
:1025E0000B4A7B6803F52873012142F823107B68AE
:1025F00001337B607B68032BE7D900BF00BF0C373A
:10260000BD46BDE881408546704700BF004001409F
:1026100000002842A89300208C93002080B483B04F
:1026200000AF7860FEE780B485B000AFF860B960B5
:102630007A603B60002318461437BD4680BC704763
:1026400080B586B000AF78601F4B1B68002B02D1AD
:102650001D4B1E4A1A601C4B1B687B61EFF30883FD
:102660003B61194B1B683A699A420FD9164B1A689D
:102670007B6813443A699A421AD21923144A0121F9
:102680000020FFF7D0FF0120FFF7C8FF114BFB60D0
:102690000D4B1A687B681344FA689A4208D21923D2
:1026A0000D4A01210020FFF7BEFF0120FFF7B6FF12
:1026B000054B1A687B681344034A13607B6918460C
:1026C0001837BD4680BD00BFAC930020A094002009
:1026D0001883002000F000203483002080B500AF74
:1026E00000F0FAF8044B5B69034A43F4007353614A
:1026F000FDF7A0FE00BF80BD00ED00E080B588B012
:1027000000AF314BD3F8983003F08063FB61FB6975
:10271000002B4ED12C4BD3F8983003F480537B61BF
:102720007B69002B15D1294B294A1A60294B284A6D
:102730001A60294B264A1A60284B294A1A60294BED
:10274000234A1A60284B224A1A60284B204A1A60F2
:1027500036E0274A3B1D92E8030083E803001A4B4A
:10276000D3F89C309B0903F007033B613A1D3B699A
:1027700013441B78FB73FB7B022B12D0022B14DC5F
:10278000002B02D0012B07D00FE000F035F8B86124
:10279000B86900F04FF813E04FF4004000F04AF839
:1027A0000EE0144800F046F80AE0124800F042F843
:1027B00006E000F021F8B861B86900F03BF8FFE7E7
:1027C00000BF2037BD4680BD0080034070890020D7
:1027D00000E1F50574890020788900207C890020BB
:1027E00040787D018089002084890020888900202C
:1027F0004883002040420F0080B483B000AF0A4BF2
:10280000D3F8503103F004033B603B68002B02D146
:10281000064B7B6001E0064B7B607B6818460C37FB
:10282000BD4680BC704700BF0080034040787D01FA
:1028300080F0FA0280B483B000AF78600C4A7B6805
:1028400013600C4A7B6813600B4A7B6813600B4B68
:102850000B4A1A600B4A7B6813600B4A7B68136053
:102860000A4A7B68136000BF0C37BD4680BC7047C6
:102870007089002074890020788900207C890020DC
:1028800040787D018089002084890020888900208B
:1028900080B483B000AF0E4BD3F84C313B603B6843
:1028A0004FF60202934204D03B680A4A934203D097
:1028B00005E001237B6005E002237B6002E000234A
:1028C0007B6000BF7B6818460C37BD4680BC7047F4
:1028D0000080034002F8010080B582B000AFFFF72E
:1028E000D7FF78607B68012B02D100F007F800E089
:1028F00000BF00BF0837BD4680BD000080B400AFF8
:10290000094BD3F89830084A43F48073C2F89830E2
:10291000054BD3F89830044A23F08063C2F898300E
:1029200000BFBD4680BC70470080034080B500AF4B
:1029300043F6FF710020FEF743FDFEF7F1FD012293
:102940004FF001004FF00001FEF7A4FDFEF720FE5E
:1029500000BF80BD80B582B000AFFEF727FE214BDF
:102960005B790133DAB21F4B5A711E4B1B7801336E
:10297000DAB21C4B1A701B4B1B78FB71FB79772B5F
:1029800026D9184B00221A70164B00225A70154B8C
:102990009B780133DAB2134B9A70124B9B783B2B26
:1029A0001BD9104B00229A700E4BDB780133DAB240
:1029B0000C4BDA700B4BDB78172B0ED9094B00222E
:1029C000DA70084B1B790133DAB2064B1A7104E056
:1029D000FB795B08DAB2034B5A7000BF0837BD467B
:1029E00080BD00BFB093002080B5A4B000AF786078
:1029F000174A07F10C0311468022184600F0F0FE3A
:102A0000144800F0D9FB0023C7F88C3010E0D7F849
:102A10008C3003F540034033D80107F10C0100234B
:102A20008022FEF7D7FDD7F88C300133C7F88C3001
:102A3000D7F88C30B3F5FA7FE9D3064800F0BCFB39
:102A400005490448FDF7FCFD00BF9037BD4680BD39
:102A50009C8300202C9400205083002080B5A4B0DB
:102A600000AF78600B46FB70FB781A463A731A4643
:102A70007A731A46BA731A46FA731A463A741A46A1
:102A80007A741A46BA741A46FA741A463A751A468D
:102A90007A751A46BA751A46FA751A463A761A4679
:102AA0007A761A46BA761A46FA761A463A771A4665
:102AB0007A771A46BA771A46FA771A4687F82020A4
:102AC0001A4687F821201A4687F822201A4687F8E6
:102AD00023201A4687F824201A4687F825201A460C
:102AE00087F826201A4687F827201A4687F82820D4
:102AF0001A4687F829201A4687F82A201A4687F8A6
:102B00002B201A4687F82C201A4687F82D201A46C3
:102B100087F82E201A4687F82F201A4687F830208B
:102B20001A4687F831201A4687F832201A4687F865
:102B300033201A4687F834201A4687F835201A467B
:102B400087F836201A4687F837201A4687F8382043
:102B50001A4687F839201A4687F83A201A4687F825
:102B60003B201A4687F83C201A4687F83D201A4633
:102B700087F83E201A4687F83F201A4687F84020FB
:102B80001A4687F841201A4687F842201A4687F8E5
:102B900043201A4687F844201A4687F845201A46EB
:102BA00087F846201A4687F847201A4687F84820B3
:102BB0001A4687F849201A4687F84A201A4687F8A5
:102BC0004B201A4687F84C201A4687F84D201A46A3
:102BD00087F84E201A4687F84F201A4687F850206B
:102BE0001A4687F851201A4687F852201A4687F865
:102BF00053201A4687F854201A4687F855201A465B
:102C000087F856201A4687F857201A4687F8582022
:102C10001A4687F859201A4687F85A201A4687F824
:102C20005B201A4687F85C201A4687F85D201A4612
:102C300087F85E201A4687F85F201A4687F86020DA
:102C40001A4687F861201A4687F862201A4687F8E4
:102C500063201A4687F864201A4687F865201A46CA
:102C600087F866201A4687F867201A4687F8682092
:102C70001A4687F869201A4687F86A201A4687F8A4
:102C80006B201A4687F86C201A4687F86D201A4682
:102C900087F86E201A4687F86F201A4687F870204A
:102CA0001A4687F871201A4687F872201A4687F864
:102CB00073201A4687F874201A4687F875201A463A
:102CC00087F876201A4687F877201A4687F8782002
:102CD0001A4687F879201A4687F87A201A4687F824
:102CE0007B201A4687F87C201A4687F87D201A46F2
:102CF00087F87E201A4687F87F201A4687F88020BA
:102D00001A4687F881201A4687F882201A4687F8E3
:102D100083201A4687F884201A4687F885201A46A9
:102D200087F886201A4687F887201A4687F8882071
:102D30001A4687F889201A4687F88A2087F88B3048
:102D4000134800F039FA0023C7F88C3010E0D7F8A8
:102D50008C3003F540034033D80107F10C01002308
:102D60008022FEF737FCD7F88C300133C7F88C305F
:102D7000D7F88C30B3F5FA7FE9D3054800F01CFA98
:102D800004490348FDF75CFC00BF9037BD4680BD99
:102D90002C9400205083002080B5C6B002AF07F10C
:102DA0000C0318603B1D1A6007F10B030A461A70EA
:102DB0003C4800F001FA0023C7F80C3162E0D7F874
:102DC0000C3103F540034033DB011A4607F11003D1
:102DD0001846114680231A4600F002FD002387F8AA
:102DE0000B3133E097F80B3107F11002D35C07F198
:102DF0000B0212789A4224D03B1D3A1D1268013210
:102E00001A60D7F80C3103F540034033DA0197F824
:102E10000B31D11897F80B3107F11002D35C1A4629
:102E200007F10B031B7807F19000009313460A4645
:102E30001D4900F0B9FD07F1900319461948FDF747
:102E4000FFFB97F80B31013387F80B3197F90B3102
:102E5000002BC7DAD7F80C3103F540034033DA0111
:102E600007F19000D7F80C31104900F09DFD07F1F3
:102E7000900319460B48FDF7E3FBD7F80C310133FB
:102E8000C7F80C31D7F80C31B3F5FA7F97D3054862
:102E900000F092F93B1D1B68184607F58877BD4680
:102EA00080BD00BF2C9400201C8400204C84002096
:102EB00080B5E8B000AFFFF711FCFFF71FFCFFF78C
:102EC00035FD03224FF4E131A448FDF781FBA44A0C
:102ED00007F5827311468022184600F081FC07F145
:102EE0008403A04A1846114680231A4600F078FC55
:102EF00007F1830300221A700023C7F89C310123D5
:102F000087F89B31012387F89A31974B0022DA66C4
:102F1000964BC7F8903196499048FDF791FB95493B
:102F20008E48FDF78DFB94498C48FDF789FB93494A
:102F30008A48FDF785FB894800F03EF90023C7F871
:102F4000943150E007F1830300221A70802000F0D2
:102F500089F90346C7F88831002387F88731D7F805
:102F6000943103F540034033DB0180211846FEF71E
:102F700055FC03461A4607F183031A7097F8873108
:102F800080221946D7F8880100F0A0FCD7F89431C8
:102F900003F540034033D80100238022D7F888117D
:102FA000FEF718FB03461A4607F183031A70D7F899
:102FB000880100F05FF9D7F8943103F540034033FE
:102FC000DA0107F10800D7F894316D4900F0ECFC04
:102FD00007F1080319466148FDF732FBD7F8943131
:102FE0000133C7F89431D7F89431B3F5FA7FA9D3F8
:102FF0005A4800F0E1F8A6E05D495848FDF720FB8B
:1030000060495648FDF71CFB5F495448FDF718FB23
:103010005E495248FDF714FB5D495048FDF710FB2F
:103020005C494E48FDF70CFB5B494C48FDF708FB3B
:103030005A494A48FDF704FB7DE03B1D0122194631
:103040004648FDF757FBC7F88C01D7F88C31002BA9
:1030500070D03B1D1B78313B052B6CD801A252F878
:1030600023F000BF7D3000208D300020CB300020C9
:10307000093100201B3100202D31002048493748FC
:10308000FDF7DEFA3548FFF7AFFC54E04549334819
:10309000FDF7D6FAD7F89C2100213048FFF77CFED7
:1030A000C7F89C0107F10803D7F89C213E49184650
:1030B00000F07AFC07F1080319462848FDF7C0FA2A
:1030C0002B492648FDF7BCFA35E038492348FDF77F
:1030D000B7FAD7F89C21FF212048FFF75DFEC7F81B
:1030E0009C0107F10803D7F89C212F49184600F0EE
:1030F0005BFC07F1080319461848FDF7A1FA1C49C3
:103100001648FDF79DFA16E029491448FDF798FA8C
:1031100000211248FFF7A2FC0DE026490F48FDF7F9
:103120008FFAFF210D48FFF799FC04E0002387F890
:103130009B3100E000BF97F89B31002B7FF47DAFFF
:10314000002387F89A3197F89A31012B3FF454AF56
:103150000023184607F5D077BD4680BD2C9400208B
:10316000EC8500209C830020008003405C840020CC
:103170005083002068840020B0840020FC8400205C
:103180004C840020188500202485002034850020F0
:103190004085002050850020608500207485002037
:1031A0008085002094850020A4850020B48500201F
:1031B000C8850020D885002090B59FB002AF786008
:1031C0000023FB6007F1100360220021184600F085
:1031D0007DFB0F4B1B7919460D4BDB781C460C4BC6
:1031E0009B781A460A4B5B7807F10C00019300921A
:1031F00023460A46074900F0D7FB07F10C0319469E
:103200000548FDF71DFA00BF7437BD4690BD00BFED
:10321000B09300206C8600202C94002070B50D4ED9
:103220000D4D761BB61006D0002455F8043B013432
:103230009847A642F9D1094E094D05F079FB761B56
:10324000B61006D0002455F8043B01349847A64236
:10325000F9D170BD4889002048890020508900209C
:1032600048890020024B0146186800F00BB800BFE7
:103270008C890020024B0146186803F0ADB900BFED
:103280008C8900202DE9F04F01F10B05162D064623
:1032900083B024D8102900F2B68000F067FB102517
:1032A00002201823DFF8E88443445C68A3F1080295
:1032B000944200F0B4806368E16823F00303234480
:1032C0005A68A56842F00102E96030468D60083412
:1032D0005A6000F051FB204603B0BDE8F08F35F096
:1032E000070500F19080A94200F28D8000F03EFBBE
:1032F000B5F5FC7FC0F085816B0A00F08B80042B54
:1033000000F25B81AB0903F1390003F13807C1001A
:10331000DFF87C8441444C680839A14206D10CE0B6
:10332000002A80F22281E468A14206D0636823F07B
:1033300003035A1B0F2AF3DD3846D8F81040DFF894
:1033400054C4644577D0626822F00302531B0F2BEC
:1033500000F36581002BC8E904CC80F25681B2F5F8
:10336000007F80F006810121D30852090B4401FA45
:1033700002F2D8F8041058F8337008EBC30E0A4371
:10338000AEF10801C4E90271C8F8042048F83340DE
:10339000FC60012183109940914253D8114206D11B
:1033A00020F003004900114200F10400FAD008EBBC
:1033B000C0094C468646E768BC4207D109E1002BAC
:1033C00080F21081FF68BC4200F003817A6822F02D
:1033D0000302531B0F2BF2DD45F0010E3046D7E9F7
:1033E00002413D4443F00106C7F804E0E1608C600F
:1033F000C8E90455C5E902CC6E60BB5000F0BCFAC8
:1034000007F1080402E00C2300243360204603B0D7
:10341000BDE8F08F4FF4007140203F2778E7DC686B
:10342000A34208BF02307FF446AFD8F81040DFF85F
:1034300064C3644587D10121D8F8042083109940E2
:103440009142ABD9D8F80840676827F00307BD421E
:1034500002D87B1B0F2B77DCDFF83C93C84BD9F8E5
:1034600000201B6801322B4404EB070A00F0248182
:1034700003F580530F3323F47F6B2BF00F0B59466A
:10348000304600F07FFA411C024600F0E1808245A0
:1034900000F2DC80BB4B196859440846196000F003
:1034A0004181D9F80010019301311BBFA2EB0A0A38
:1034B0005044C9F80020186012F0070A00F00A8191
:1034C000CAF108010A44CAF5805193440831A1EBBE
:1034D0000B01C1F30B0949463046009200F052FA45
:1034E000421CDDE9002300F04381801A00EB090B48
:1034F00019684BF0010049444445C8F80820196098
:10350000506000F01C810F2F40F21B814FF0050C22
:1035100060680C3F27F0070700F00100384304EB18
:10352000070E0F2F6060CEE901CC00F23781144600
:103530005068954B1A688A4238BF1960934B1A68D5
:103540008A4238BF196086E045F0010243F001036A
:10355000254462603046C8F8085008346B6000F0BB
:103560000BFA204603B0BDE8F08F23445A68E168A7
:10357000A7E6B2F5206F4FEA522361D3142B00F275
:10358000BA8003F15C01C9005B3308EB010758F80E
:103590000110083F8F4200F092804B6823F0030334
:1035A000934202D989688F42F7D1CF68D8F80420B6
:1035B000C4E90217BC60CC60EBE6142B59D9542B3C
:1035C00000F2A1802B0B03F16F0003F16E07C10025
:1035D0009EE60EF1010E1EF0030F04F108047FF4C5
:1035E000EAAE51E03C463A445368F96854F8085F43
:1035F00043F0010353603046E9608D6000F0BCF990
:1036000004E7E80805F108034CE622445368304615
:1036100043F001035360083400F0AEF9F6E645F0DC
:10362000010743F00101254467603046C8E90455AD
:10363000C5E902CC6960A35000F09EF90834E5E6C4
:10364000930903F13901C90038339EE7444564D03A
:10365000D8F80840606820F0030B5D45ABEB05032C
:1036600002D80F2B3FF770AF304600F085F90024E9
:10367000CCE603F15C0003F15B07C10048E659F8B2
:1036800008394B4540F0A98010F0030F00F1FF30DE
:10369000F5D1D8F8043023EA0103C8F80430490012
:1036A00099423FF6CFAE19B9CCE649000EF1040EAF
:1036B0001942FAD070467AE603F1100BDFE64FF0BC
:1036C000010E9A10D8F804300EFA02F21A43C8F824
:1036D00004206DE702EB0B014942C1F30B09494697
:1036E0003046009200F04EF9431CDDE900237FF4E0
:1036F000FCAED146FCE6542B26D8130B03F16F0128
:10370000C9006E3341E7B3F5AA7F26D8EB0B03F16E
:10371000780003F17707C100FAE51A4B186858449E
:103720001860BEE6CAF30B0CBCF1000F7FF4B9AE13
:10373000D8F80840BB444BF001006060F9E614463D
:10374000F7E6012353608FE7B3F5AA7F32D8D30B96
:1037500003F17801C900773317E740F254529342DE
:1037600032D8AB0C03F17D0003F17C07C100CFE53B
:10377000AAF1080AD3444FF00009ABEB020BB7E6FD
:10378000E8930020B8930020E0930020E493002009
:10379000B88D0020C08D0020C091002004F10801E8
:1037A0003046009302F018FFD8F80840009B60688C
:1037B0001968BEE640F254518B420AD8930C03F1CB
:1037C0007D01C9007C33E0E64FF47E717F207E27C7
:1037D0009EE54FF47E717E23D7E6D8F804305EE78D
:1037E000844641EA000313F0030349D1403A23D34E
:1037F0000B6803604B6843608B688360CB68C36071
:103800000B6903614B6943618B698361CB69C36158
:103810000B6A03624B6A43628B6A8362CB6AC36240
:103820000B6B03634B6B43638B6B8363CB6BC36328
:1038300040304031403ADBD230320BD30B6803606A
:103840004B6843608B688360CB68C3601030103175
:10385000103AF3D20C3205D351F8043B40F8043B44
:10386000043AF9D2043208D0D2071CBF11F8013B48
:1038700000F8013B01D30B8803806046704700BF0E
:10388000082A13D38B07B1D010F00303AED0C3F1D5
:103890000403D21ADB071CBF11F8013B00F8013BFF
:1038A000A4D331F8023B20F8023B9FE7043AD9D376
:1038B000013A11F8013B00F8013BF9D20B78037093
:1038C0004B7843708B78837060467047F0B48607FE
:1038D00046D0541E002A3CD00346CAB201E0013C47
:1038E00037D303F8012B9D07F9D1032C2AD9CDB288
:1038F00045EA05250F2C45EA054534D9A4F1100207
:1039000022F00F0C03F120071609674403F110029F
:1039100042E9045542E902551032BA42F8D1721C0C
:1039200014F00C0F03EB021204F00F0613D0331F38
:1039300023F003030433134442F8045B9342FBD1A6
:1039400006F003042CB1CAB21C4403F8012B9C42BC
:10395000FBD1F0BC704734461346002CF3D1F8E796
:1039600014460346C1E71A462646E0E7014802F03E
:103970003DBF00BF7C940020014802F039BF00BF6A
:103980007C940020002238B5064D044608462A6083
:10399000FEF756FE431C00D038BD2B68002BFBD031
:1039A000236038BD909400200EB4014630B56FF00E
:1039B00000449CB01FAB0B4853F8042B0A4D0291F6
:1039C0000691006802A90193CDE90445079400F02F
:1039D0000DF80022029B1A701CB0BDE8304003B005
:1039E000704700BF8C8900200802FFFF2DE9F04FCF
:1039F000D7B08B4617460E93814602F0F3FE03685C
:103A00001846189303F09EFABBF80C3017901D0669
:103A100004D5DBF81030002B00F0DF8700230021F5
:103A20000022CDE92B33CDE91A33CDE91C331393B2
:103A300019930A932DAB98462A933B78DA46CDE941
:103A40001412002B00F0A4813C4604E014F8013F5E
:103A5000002B00F0FD80252BF8D1E51B40F0FB800A
:103A60002378002B00F0948100230B938DF88B308A
:103A700007934FF0FF33667804F1010B20212B24CC
:103A800009930BF1010BA6F120035A2B00F2FF80E2
:103A9000DFE813F0BC02FD00FD00B502FD00FD00F3
:103AA000FD009102FD00FD006A00E702FD00340206
:103AB000CD02FD00C6025B005B005B005B005B00AB
:103AC0005B005B005B005B00FD00FD00FD00FD0096
:103AD000FD00FD00FD009001FD00F7017C0090015C
:103AE00090019001FD00FD00FD00FD008A02FD0037
:103AF000FD00A900FD00FD00FD000B02FD003B02E2
:103B0000FD00FD008107FD00FD00FD00FD00FD0042
:103B1000FD00FD00FD009001FD00F7018000900117
:103B200090019001800280007500FD007602FD008A
:103B30005E02AD004C027500FD000B0272005B07D7
:103B4000FD00FD005F07FD0072000022A6F13003BA
:103B50001BF8016B02EB820203EB4202A6F1300379
:103B6000092BF5D90B928EE70E9B53F8042B002AF4
:103B70000B920E93C0F2BF819BF8006081E7079B18
:103B80009BF8006043F0200307937AE7079B43F01C
:103B900010030793079B9C0640F162810E9B07333D
:103BA00023F007031946F1E8022314461D460E913F
:103BB000002A73F10003C0F2AB85099B0133079B18
:103BC00000F0148423F0800354EA0502089340F0C7
:103BD0000E84099A002A40F00F840793002356AF01
:103BE00009930C936BE2079B43F010030793079B29
:103BF0009A0640F126810E9B073323F00703F3E872
:103C000002450E93079B23F4806308930023002250
:103C10008DF88B20099A1146013100F03182089904
:103C200021F08001079154EA050140F02782002A23
:103C300040F07D83002BD1D1089B13F001030C933E
:103C400000F0908530230DF257178DF8573136E28A
:103C5000E51B00F09D80DDE92B3201332A44072B60
:103C6000C8E90075CDE92B3206DC08F108080A9A8C
:103C700023782A440A92F4E6514648462AAA03F0D9
:103C8000C3F9002841F0CE830DF1B408EFE7002E10
:103C90007ED0002301211A4608918DF8F4608DF83A
:103CA0008B300D9309931293169310930C913DAFA3
:103CB000079B13F0020302D008990231089107997B
:103CC00011F084010F9105D10B9908980D1A002D60
:103CD00000F34B832C9C72B101202B9A04440244C4
:103CE0000DF18B01072ACDE92B24C8E9001000F360
:103CF000CD8308F108086BB102212B9B0C440133E2
:103D000023AA072BCDE92B34C8E9002100F3CC838B
:103D100008F108080F9B802B00F03482099B0C9A55
:103D20009D1A002D00F36E82079BD90500F1D58105
:103D30002B9B0C9A01331444072BC8E900722C9476
:103D40002B9300F3978308F10808079B590705D5C3
:103D50000B9B089A9D1A002D00F3B283DDE90A320D
:103D600008998A42ACBF9B185B180A93002C40F05C
:103D70007D8200232B930D9B1BB148460D9902F0C9
:103D80002BFC5F460DF1B4083B78002B7FF45CAE52
:103D90002C9BD346002B41F04B82BBF80C3013F028
:103DA000400F0A9B18BF4FF0FF330A930A9857B091
:103DB000BDE8F08F0E9B073323F007031946F1E8A7
:103DC0000223CDE91423DDE9143424F000441D4618
:103DD00018460E914FF0FF322146A44B04F0DAF85A
:103DE000002840F0D984284621464FF0FF329F4BEF
:103DF00004F0B2F8002840F0CF84DDE9140100227D
:103E0000002304F09FF8002841F00E809DF88B20DD
:103E100003200021964F974B08900D91472EC8BF65
:103E20001F46079C0C9024F080040794099112917E
:103E300016911091002A3FF43BAF089B0133089381
:103E400036E7079BDB0600F19C84079B5F0640F189
:103E5000B2870E9B002553F8044B0E93A4B2D1E613
:103E6000079BD80600F16885079B590640F1BE877D
:103E70000E9B53F8044B24B2E5170E9322462B46B3
:103E800096E6002101240E9B0A4653F8040B089481
:103E9000CDE90D138DF88B108DF8F4000991129176
:103EA000169110910C943DAF02E700250E9C8DF801
:103EB0008B5054F8047B002F00F09F85099A13461D
:103EC000013300F070872946384602F093FC0D90CC
:103ED000002801F0B9802B460D9A0995D21B0C924F
:103EE00022EAE27208920E949DF88B200D931293B1
:103EF000169310939EE70B9B5B420B93079B9BF8DB
:103F0000006043F004030793BBE5079B43F01003F5
:103F10000893089B9D0640F1EA830E9B073323F02C
:103F20000703F3E802450E93012370E647F63002DB
:103F30000E9B079953F8044B41F002010E934E4B30
:103F400000251993782602230891ADF88C205EE6AF
:103F5000079B9D0600F10884079BDC0600F1E186C3
:103F6000079B580600F19587079B990540F1D98674
:103F70000E9B0A9953F8042B5F4611700E9303E7CA
:103F80009BF80060079B6C2E00F0088543F010033F
:103F9000079376E59BF80060079B682E00F0078585
:103FA00043F0400307936CE5079B9BF8006043F0E8
:103FB0000803079365E5484602F014FC4368184679
:103FC0001C9302F0BFFF034648461D461D9302F0B6
:103FD00009FC826820211A92002D3FF4CDAD1A9B76
:103FE000002B3FF4C9AD1A9B1B78002B3FF4C4ADE6
:103FF000079B9BF8006043F48063079341E5079BB0
:104000009BF8006043F0010307933AE59DF88B307D
:10401000002B7FF4B1AD9BF800608DF88B1030E57C
:10402000079B9BF8006043F08003079329E55A46FD
:1040300012F8016B2A2E01F05182A6F13003092BF0
:10404000934698BF002201F2EF801BF8016B02EB50
:10405000820203EB4202A6F13003092BF5D9099243
:1040600011E59BF800608DF88B400AE5FFFFEF7FBC
:10407000AC860020B0860020BC860020079A0892FB
:10408000012B00F0B481022B00F0598156AFE208F9
:1040900042EA4572E90804F007030D46144630333E
:1040A00054EA05013A4607F8013DF0D1089908465F
:1040B000C00700F1B88256ABDB1B07910C930023BD
:1040C00009990D931293169310930C9B9DF88B20D6
:1040D0008B42B8BF0B460893ACE6652E40F3D88000
:1040E000DDE914010022002303F022FF002800F084
:1040F0001E8201212B9BC54A0B440C44072BCDE9A2
:104100002B34C8E9002100F3BB8508F10808249B83
:10411000139A934280F221832B9B179A01331899AB
:104120001444072BC8E900122C942B9300F3488405
:1041300008F10808139B5D1E002D7FF706AE102DB9
:1041400040F3C785B24F10262B9B0F9705E008F16F
:104150000808103D102D40F3BF8501331034072BA4
:10416000CDE92B34C8E90076F1DD514648462AAA4C
:1041700002F04AFF002840F08180DDE92B340DF188
:10418000B408E6E70B9B089A9D1A002D7FF7C6AD91
:10419000102D41F369809E482146102304462B9A36
:1041A0000F9004E0103D102D08F1080817DD0132D2
:1041B0001031072ACDE92B21C8E90043F2DD514631
:1041C00048462AAA02F020FF002857D1DDE92B211A
:1041D000103D102D4FF010030DF1B408E7DC0C4634
:1041E00001320F9B2C44072ACDE92B24C8E9003566
:1041F00000F38A85099B0C9A08F108089D1A002D86
:104200007FF792AD102D40F30A8681482146102396
:1042100004462B9A0F9004E0103D102D08F1080879
:1042200016DD01321031072ACDE92B21C8E9004300
:10423000F2DD514648462AAA02F0E6FEF0B9DDE971
:104240002B21103D102D4FF010030DF1B408E8DCC8
:104250000C4601320F9B2C44072ACDE92B24C8E9D8
:10426000003500F3378208F108085DE551464846FD
:104270002AAA02F0C9FE00283FF47BADD3460D9B6D
:10428000002B3FF48AAD48460D9902F0A5F984E56C
:10429000139B012B40F3D58101232B9D1C441D440E
:1042A000072D2C94C8F800702B95C8F8043000F343
:1042B0003A8208F10808179B0135189A1C44072D0B
:1042C000CDE92B54C8E9002300F33A8208F108082D
:1042D0000023DDE91401002203F02AFE139B0028CD
:1042E00040F0CD81013B013501371C44072DCDE95C
:1042F0002B54C8F80070C8F8043000F3DC8408F1CF
:1043000008081B9A0135144426AB072DCDE92B5420
:10431000C8E900327FF717AD514648462AAA02F095
:1043200073FE0028AAD12C9C0DF1B4080DE5012BD9
:1043300000F0CA87022B079B08937FF4A7AE199859
:1043400056AF230943EA0573290904F00F020D460D
:104350001C46835C07F8013D54EA0503F1D1089B34
:10436000079356ABDB1B0C93A9E6102D40F3688630
:10437000DDE92B211E930B4639461024374656465D
:10438000CA46894604E0103D102D08F1080817DDE3
:10439000013220491033072ACDE92B23C8E9001444
:1043A000F1DD314650462AAA02F02EFE002840F0E8
:1043B0005884DDE92B23103D102D0DF1B408E7DC06
:1043C0004846D146B2463E46074619461E9B4C1902
:1043D00001321049072ACDE92B24C8E9001500F362
:1043E0001F849DF88B2008F1080874E40893002DC1
:1043F00008BF0A2C80F0D083089B30340793012338
:104400008DF857410C930DF2571758E6EC860020B3
:1044100000870020F0860020514648462AAA02F074
:10442000F3FD00287FF42AAF249A2C9C0DF1B408E8
:10443000002A40F07F84079B139A03F00103134383
:104440003FF483AC2B9B179A013318991444072B24
:10445000C8E900122C942B9300F3248508F1080876
:10446000139A01331444072BCDE92B34C8E90072A9
:104470007FF769AC514648462AAA02F0C5FD0028DC
:104480007FF4FCAE2C9C0DF1B4085EE45146484626
:104490002AAA1E9302F0B8FD00287FF4EFAE2C9CF0
:1044A0001E9B0DF1B40826E4514648462AAA02F0A4
:1044B000ABFD00287FF4E2AE2C9C0DF1B40829E49A
:1044C000102D40F3BE8610262B9B04E0103D102DCE
:1044D00008F1080817DD0133AD4A1034072BCDE988
:1044E0002B34C8E90026F1DD514648462AAA02F0DD
:1044F0008BFD00287FF4C2AEDDE92B34103D102D7A
:104500000DF1B408E7DC0133A14A2C44072BCDE9B7
:104510002B34C8E900257FF721AC514648462AAA2A
:1045200002F072FD00287FF4A9AE2C9C16E4249AB8
:10453000002A40F38683109B139A9342A8BF134628
:10454000002B1D460BDD2B9B2C440133072BC8E9A8
:1045500000752C942B9300F31E8508F10808109B1E
:10456000002DA8BF5B1B002B1D4600F35682109B3D
:104570003B441E46079B5B0500F17782249B139A00
:10458000934203DB079AD50740F17A842B9A179957
:10459000013218980C44072AC8E900012C942B9288
:1045A00000F3068508F10808139ABD18AD1BD31A4D
:1045B0009D42A8BF1D46002D0BDD2B9A2C440132D5
:1045C000072AC8E900652C942B9200F35F8508F157
:1045D0000808002DB4BF1D465D1B002D7FF7B5AB4D
:1045E000102D40F376836B4F10262B9B0F9705E021
:1045F00008F10808103D102D40F36E83013310348C
:10460000072BCDE92B34C8E90076F1DD5146484649
:104610002AAA02F0F9FC00287FF430AEDDE92B3441
:104620000DF1B408E6E7302B3FF499AE3023023A9F
:1046300007F8013C089956AB9B1A174607910C9353
:104640003DE5079BD8073FF527AE01232B9D1C4472
:104650001D44072D2C94C8F800702B95C8F8043021
:104660007FF74DAE514648462AAA02F0CDFC0028FD
:104670007FF404AEDDE92B540DF1B40841E65E1E73
:10468000002E7FF73EAE102E40F31E87414BCDF833
:1046900024B01027D3460F93CA46994605E008F187
:1046A0000808103E102E40F3F88201351034072D13
:1046B000CDE92B54C8E90097F1DD594650462AAAA6
:1046C00002F0A2FC002840F0CC85DDE92B540DF16E
:1046D000B408E6E7514648462AAA02F095FC0028AD
:1046E0007FF4CCAD2C9C0DF1B408FFF71DBB089BEB
:1046F000DC0600F11981089B580640F168830E9A88
:10470000012352F8044B00250E92A4B2FFF77FBAA2
:104710002D23079A64428DF88B3065EB4505012304
:104720000892FFF777BA514648462AAA02F06CFC75
:1047300000287FF4A3ADDDE92B540DF1B408BAE5F0
:10474000514648462AAA02F05FFC00287FF496AD45
:10475000DDE92B540DF1B408BAE5079BDA077FF5C4
:10476000F4AAD9E456AFAAE40E9B5F4653F8041BA3
:104770000E930A9BDD171A462B46C1E90023FFF76B
:1047800003BB0E9B002553F8044B0E93FFF73ABA78
:10479000F086002000870020DDE914010B46024668
:1047A00003F0F8FB0146002840F04386612E00F03C
:1047B0008685412E00F07A84099B26F020055A1C3C
:1047C000089500F07D83472D00F09E85DDE91401FA
:1047D000079B43F4807312930B46002BC0F2BA85FB
:1047E00000220F931E920D920C90462D0C9A00F011
:1047F0000784452D4FF002000F9B40F0E783099995
:1048000000904C1C28A925A8049124A9CDE90210E8
:104810000194484600F034FF07460444129B079D6C
:104820000793002200230C980F9903F081FB0028C6
:1048300000F098832346DB1B1393089B472B00F063
:104840005E83089B462B00F00B84249B1093109BE7
:10485000089A013B412A249300F0AD850021F2B271
:10486000002B8DF89820B6BF2D222B22109B8DF89F
:104870009920B8BFC3F10103092B40F3A2850DF1C4
:10488000A70E72469C46BF4C6046114684FB0C2323
:104890004FEAEC72C2EBA30202EB8203ACEB4303E0
:1048A00030336328944601F8013C01F1FF32EBDC20
:1048B00063463033D8B28B1E9E4502F8010C40F29D
:1048C0002C860DF19A0301E012F8010B964503F8CE
:1048D000010BF9D10DF1A9030DF19A025B1A1344F2
:1048E00026AA9B1A1B93139B1B9A012B1A440C920A
:1048F00040F3CC850C9B179A13440C93002312931E
:10490000169310930C9B25F4806545F4807223EA7E
:10491000E373079208931E9B002B40F017839DF8CA
:104920008B200993FFF786BA0E9A012352F8044BA5
:1049300000250E92FFF76BB90E9B53F8044BE51759
:104940000E9322462B46FFF733B9079B0893FFF7D8
:10495000E0BA8D4B1993079B990640F1FE800E9BA0
:10496000073323F00703F3E802450E93079AD707AE
:104970000AD554EA050307D0302342F002028DF82D
:104980008D6007928DF88C30079A022322F48062A2
:104990000892FFF73CB97D4B1993DCE743F0200305
:1049A0009BF8016007930BF1010BFFF76AB843F422
:1049B00000739BF8016007930BF1010BFFF761B8DF
:1049C000514648462AAA02F01FFB00287FF456AC45
:1049D0002C9C0DF1B408FFF7ADBB40214846FEF713
:1049E00051FCCBF80000CBF81000002800F08D85BA
:1049F0004023CBF81430FFF711B8099B3A46062B39
:104A000028BF062309971297169710970D970893BA
:104A10005F4F0E940C93FFF70DBA102B40F358859F
:104A200051465C4ACA4609971026174689462B9B71
:104A30000F9205E008F10808103D102D40F3FA81AF
:104A400001331034072BCDE92B34C8E90076F1DDB2
:104A5000494650462AAA02F0D7FA002840F0FD83C2
:104A6000DDE92B340DF1B408E6E7139B4246DDF88F
:104A70005880FB180993CDF830B00F972046DDF829
:104A800074B01A9F129BB8F1000F2DD07BBB013F71
:104A900008F1FF382B9B1C9901335844072BC2E9BE
:104AA000001B2C902B9362DC083209993B788D1BFC
:104AB0009D42A8BF1D46002D0BDD2B9B28440133D2
:104AC000072BC2E900652C902B9300F311813B78F2
:104AD0000832002DB4BF1D465D1B002D0BDC1E44AB
:104AE000129BB8F1000FD1D1002B00F0F981129B7D
:104AF000013B1293CEE7102D40F3C5842B9910246F
:104B00000B4604E0103D102D02F1080216DD0133C2
:104B100020491030072BCDE92B30C2E90014F1DD1C
:104B2000514648462AAA02F06FFA00287FF4A6AB45
:104B3000DDE92B30103D102D2DAAE8DC19464B1C69
:104B400014492844072BCDE92B30C2E9001500F3A6
:104B500015823B7808321E44C2E7079BDA0640F113
:104B600084800E9B002553F8044B0E93FEE65146BD
:104B700048462AAA02F048FA00287FF47FAB2C9816
:104B80002DAA92E767666666BC860020D086002064
:104B9000E4860020008700200022089BCDF81CB08E
:104BA00003F480630C96CDF834A09346CA461E46A3
:104BB000C14656AFDDF868800BE00A22002320468C
:104BC000294603F025FA002D08BF0A2C1BD3044602
:104BD0000D460A2200232046294603F019FA3032F6
:104BE00007F8012C0BF1010B013F002EE5D098F8DE
:104BF00000309B45E1D1BBF1FF0FDED0002D08BF97
:104C00000A2C80F02881CDF86880CDF84CB0C846D9
:104C10000C9ED146DDF81CB0DDF834A0FFF79FBB39
:104C2000514648462AAA1E9302F0EEF900287FF466
:104C300025AB9DF88B202C9C1E9B0DF1B408FFF733
:104C40004AB801202B9BC54903440444072BCDE9F6
:104C50002B34C8E900103FF7DFAB08F10808FFF775
:104C6000E7BBD146B346FFF70ABB079B5B0640F1A3
:104C7000CB800E9B002553F8044B0E93A4B275E62F
:104C8000514648462AAA02F0BFF900287FF4F6AA46
:104C90002C9C0DF1B408FFF73ABAD146DA46DDF89C
:104CA00024B001350F9B3444072DCDE92B54C8E9BE
:104CB00000367FF724AB514648462AAA02F0A4F9F1
:104CC00000287FF4DBAADDE92B540DF1B408FFF7CF
:104CD00018BBA34A2B9B0F9201330F9A2C44072B2E
:104CE000CDE92B34C8E900257FF72DA8FFF7C2BB1B
:104CF000514648462AAA02F087F900287FF4BEAA46
:104D00003B782C982DAAE4E6514648462AAA02F0A0
:104D10007BF900287FF4B2AA2C9C0DF1B408FEF7B1
:104D2000FDBF0E9B0A9953F8042B5F4611600E934A
:104D3000FFF72AB82B9B1799013318980C44072BBF
:104D4000C8E900012C942B9300F3AC8008F108080B
:104D5000002ABFF685AB5542103280F2D38351460C
:104D60007F4ACA4609971026174689460F9205E0E2
:104D700008F10808103D102D40F3AA8201331034C9
:104D8000072BCDE92B34C8E90076F1DD49465046C2
:104D90002AAA02F039F9002840F05F82DDE92B34BD
:104DA0000DF1B408E6E7384602F0CCF82B4602468F
:104DB0000995FFF794B8079B002513F4007F0E9B1D
:104DC00053F8044B0E9318BFE4B2FEF71BBF0E9AC4
:104DD000089B52F8044B13F4007F4FF000054FF08E
:104DE00001030E9218BFE4B2FEF711BF079B13F444
:104DF000007F0E9B53F8044B18BF64B2E5170E9367
:104E000022462B46FEF7D4BE079B002513F4007FF5
:104E10000E9B53F8044B0E9318BFE4B2A6E5504B1B
:104E20002B9A0F93FFF715BA2D231A468DF88B3066
:104E3000FEF7EEBF4A46D1469246099F01330F9ACC
:104E40002C44072BCDE92B34C8E900253BDC08F1C5
:104E50000808FFF78CBB1D9B1C99FF1A1A463846A1
:104E600002F09EF898F801300BB108F101080A220F
:104E700000232046294603F0CBF84FF0000BA6E6AE
:104E8000139ABD18AD1BD31A9D42A8BF1D46FFF74C
:104E9000A0BB0E9B0A9953F8042B5F4611800E931A
:104EA000FEF772BF514648462AAA02F0ADF8002824
:104EB0007FF4E4A9DDE92B34249A0DF1B40847E727
:104EC0000623099382E4514648462AAA02F09CF838
:104ED00000287FF4D3A92C9C0DF1B408FFF747BB41
:104EE000139B1A970F9F9046FB189E42324628BF8D
:104EF0001A4604461646DDF830B0FFF73FBB249B48
:104F0000D81C109302DB099A934204DD023E26F07E
:104F1000200308939BE4109B13998B42C0F27A8183
:104F2000EA0740F18382179A13440C936E0540F10F
:104F30007782109B002B00F3108267260C9B23EADC
:104F4000E3730893002312931693E4E42D220023C5
:104F50008DF88B200993FEF770BF00BFEC86002010
:104F600000870020289BA342BFF465AC30215A1C67
:104F700028921970289B9C42F9D85CE45146484617
:104F80002AAA02F041F800287FF478A93B782C98EF
:104F90002DAA1E44A4E5514648462AAA02F034F838
:104FA00000287FF46BA92C9C0DF1B408FFF7D7BA49
:104FB000514648462AAA02F027F800287FF45EA945
:104FC000249B2C9C0DF1B408FFF7EEBA099C28A98C
:104FD000CDE90004049125A824A9CDE90210484692
:104FE00000F04EFB472D074619D1079D2B46DB07E6
:104FF00000F12A81129A289B0792472208921AE40C
:105000000320099C28A9CDE90004049125A824A91E
:10501000CDE902100F9B484600F032FB0746099B82
:10502000462D07EB03047FF4F9AB3B78302B00F0FF
:105030001C82249B129A079D1C440792FFF7F1BB28
:10504000DDE92B21FFF7C3B9099B9DF88B2008935D
:105050000C9309900E94129016901090FEF7EABEF1
:10506000249A002A109240F31B82099905F001034B
:105070000B4340F09A816626109B0C936A0500F161
:105080006D810C9B23EAE37308935BE75146484626
:105090002AAA01F0B9FF00287FF4F0A8249B139AF4
:1050A0002C9C0DF1B408D31AFFF793BA30238DF876
:1050B0008C3058238DF88D30079B43F00204099BF8
:1050C000632B00F3F28000233DAF0D93079BDDE9D6
:1050D000141243F4817312931346002B26F020051B
:1050E0000794C0F28D800F93002308950C911E93B6
:1050F000612E00F07D81412E7FF477AB24AA0C98BD
:105100000F9901F0E7FE00224FF07F5302F0A8FC58
:1051100004460D4600220023CDE9104502F008FFA9
:1051200008B101232493AE4B0C93099BCDF83CB0FE
:10513000013B1396CDF87C90CDF880A02197BA461C
:10514000DDE910679946DDF830B0CDF8588006E00B
:105150000022002302F0ECFE09F1FF39E8B9002239
:10516000A04B3046394602F07BFC0D46044602F067
:1051700027FF804602F00AFC0B46024629462046DD
:1051800002F0B6FA1BF80830B9F1FF3F5546064663
:105190000F464C460AF8013BDAD130463946002228
:1051A000914BDDF83CB0139ECDF83CA0CDF84C807F
:1051B000CDE91001DDE91F9ADDF85880219F02F04A
:1051C000DFFE002855D1DDE910010022864B02F0F8
:1051D000AFFE10B1139BDB074BD4002C08DB302251
:1051E0000F99631C0B4401F8012B8B42FBD10F91EB
:1051F0000F9B079DDB1B1393129B0793FFF71DBBB0
:1052000008952D23DDE914121E9302F100430C9141
:105210000F936DE7139B179A9A18109B0C92002B13
:1052200040F31A81672629E700230993FEF72BBC78
:10523000484651462AAA01F0E7FEBAF80C30FEF7BC
:10524000AEBD2B9BFFF75FB9099B079DFC18129B16
:10525000079347230893FFF7E4BACB46D146FFF7FD
:105260000EB8D146FFF70BB8604B2B9A0F93FEF7A1
:10527000B7BF0F9B0C99289513F8012CC97B8A4264
:1052800040F02A81302003F8010C289B5A1E2892F6
:1052900013F8012C9142F6D0392A0BBF0C9A013237
:1052A000927AD2B203F8012CA2E74846591CFDF7C6
:1052B000E9FF0746002800F01D810D9006E7302326
:1052C0008DF88C307823F5E6079B0893FFF794B8A8
:1052D0004A46D1469246099F01330F9A2C44072B28
:1052E000CDE92B34C8E900257FF7B8A851464846D8
:1052F0002AAA01F089FE00287EF4C0AFDDE92B3434
:105300000DF1B408FFF7ACB8002B08BF01230993D7
:10531000079B43F480731293159B002B0C93C0F2F0
:10532000BD800224099D28A825AA24ABCDE903202D
:10533000CDE90045DDE91445029322462B46484657
:105340001E9100F09DF90C9B07460F931E9B0C9439
:105350000D934AE600230D9353E767261A990B78BD
:10536000FF2B00F0DE800024109A204603E001307D
:105370000131FF2B08D0934206DAD21A4B78002B6A
:10538000F5D10B780134F4E71A911092169012942B
:10539000129A169B0C9913441D9A02FB03130C934B
:1053A00023EAE3730893FFF7B6BA179B6626D31870
:1053B00019440C9162E606F10F020121D2B2FFF707
:1053C0004FBA002967D130228DF89A200DF19B0247
:1053D000303302F8013B26ABD31A1B93FFF783BA95
:1053E000D0860020000030400000E03F0087002011
:1053F00024AA0C980F9901F06DFD00224FF07F5305
:1054000002F02EFB04460D4600220023CDE9104594
:1054100002F08EFD08B101232493444B0C9384E6E3
:1054200067262EE6BAF80C30FEF7B9BC109B0C9339
:105430007CE5159B0320002BB8BF2D234FF0000106
:10544000BABF1A468DF88B309DF88B20384F394BF8
:1054500008900D91FEF7E2BCC3F101031A4422EA61
:10546000E27367260C9208936CE5002200230C98E7
:105470000F9902F05DFD00287FF4DBAD099BC3F1BD
:1054800001032493D6E52B99FFF759BBE9077FF574
:1054900035AAFFF72FBA0DF19A0299E70D90B0E601
:1054A000099A05F0010513462B4304D10123662612
:1054B00008930C9346E5179B662601331A4422EAAB
:1054C000E2730C9208933DE51B4B0F93FFF7E9BB8A
:1054D000194A2B9B0F92B1E40F9BDDE60E9B9BF8C4
:1054E000016053F8040B934640EAE07009900E9374
:1054F000FEF7C7BABAF80C3043F04003AAF80C30F4
:10550000FEF74DBC0C4A0F92E6E60C234FF0FF323B
:10551000C9F800300A92FEF749BC02231B93FFF73B
:10552000E2B900231293169332E700BFBC86002035
:10553000B4860020B886002000870020024B13B1FB
:10554000024800F005B87047000000000D6500201B
:10555000002301461A46184601F0D2BD2DE9F04F4E
:1055600003690D6983B0AB42C0F28480013D01F153
:10557000140600F1140956F8253059F82520013396
:105580008E46A90000919A4209EB85018246B2FB42
:10559000F3F706EB8508019137D30022B446144691
:1055A00048465CF8043B01681FFA83FB07FB0B22AB
:1055B0001B0C4FEA124B07FB03BB93B2E31A8AB2F0
:1055C0001FFA8BF41344C4EB114404EB23449BB245
:1055D00043EA0443E04540F8043B4FEA24444FEAE1
:1055E0001B42DED2009B59F8033073B9019B043B88
:1055F000994504D307E0994505F1FF3503D253F8E7
:105600000429002AF7D0CAF810507146504601F01C
:1056100053FB00282ADB48460023013756F8041BB9
:1056200004688AB29A1A0B0CA1B20A44C3EB144361
:1056300003EB224392B242EA0342B04540F8042B06
:105640004FEA2343EAD259F8252009EB85036AB9CA
:10565000043B994504D307E0994505F1FF3503D292
:1056600053F80429002AF7D0CAF81050384603B07E
:10567000BDE8F08F002003B0BDE8F08F000000000F
:105680002DE9F04F16461F46016C9BB00446CDE94C
:105690000467279D41B10123426C9340C1E9012376
:1056A00001F00EF900232364B7F10009B4BF012310
:1056B00000232B60764BBCBF29F00049CDF8149035
:1056C00033EA090300F0AB80DDE9042310461946F4
:1056D00000220023CDE9060102F02AFC804670B1C9
:1056E0000123269A1360289B002B00F0C58269488D
:1056F0001860431E039303981BB0BDE8F08F18AAEF
:1057000019ABCDE90032DDE90623204601F08EFB1E
:105710005FEA1955824640F09880DDE918854544D6
:1057200005F23240202840F38983C0F1400305F29E
:10573000124009FA03F926FA00F049EA000002F0E3
:1057400015F90122013D1092A1F1F8710022524B8E
:1057500001F0CEFF48A3D3E9002302F081F948A36A
:10576000D3E9002301F0C6FF064628460F4602F0A3
:105770000DF945A3D3E9002302F072F902460B4666
:105780003046394601F0B6FF06460F4602F018FCD7
:105790000022834600233046394602F0D3FB00281E
:1057A00040F05D82BBF1160F00F24B82DDE906018D
:1057B0003A4B03EBCB03D3E9002302F0C3FB0028F1
:1057C00072D00023A8EB0505B5F101090BF1FF3BF1
:1057D0000D9300F13E8200230993BBF1000F6BDAB9
:1057E000099BCDF820B0A3EB0B030993CBF1000389
:1057F0000C93249B4FF0000B092B65D8052B40F32D
:105800001B830025043B2493249B023B032B00F2C3
:105810006286DFE813F03B0438042F040F0442F2E1
:105820000F73269AC9F31309136059EA06031CD1B2
:10583000289B002B00F04686194B03930833289AC7
:10584000039813601BB0BDE8F08FDDE90612C2F3C8
:105850001303084643F07F51CDF84080A5F2FF3591
:10586000DDF8608041F4401170E7289B002B40F088
:10587000D1830C4B03933EE761436F63A787D23F0D
:10588000B3C8608B288AC63FFB799F501344D33F2F
:105890000000F07FED8600200000F83F48870020E0
:1058A0001487002010870020A8EB0505B5F1010939
:1058B00000F196840D90099000230C93249BD94409
:1058C000092BCDF820B099D94FF0FF3601250023E0
:1058D000CDE90A6524932593002111966164204641
:1058E00000F0C8FF0E2E0390206400F2F280002D1D
:1058F00000F0EF800899002940F34084B94B01F093
:105900000F0203EBC203CA054FEA2115D3E9006772
:1059100040F1DB83DDE90601B34B05F00F05D3E968
:10592000082302F0C7F90323CDE912010E93A5B1B4
:105930001494DFF8B4820E9CEB0708D5D8E9002355
:105940003046394602F08CF806460F4601346D1099
:1059500008F10808F0D10E94149C3B46DDE91201D1
:10596000324602F0A7F9074688460D9B43B1002254
:10597000384641469D4B02F0E5FA002840F02E855E
:105980000E9802F003F83A46434602F069F8984B45
:10599000002201F0AFFEA1F15073CDE90E010F938B
:1059A0000A9B002B00F0CC83089B14930A9B129354
:1059B0000B9B002B00F09684129A8A4B002003EB7D
:1059C000C20353E902238B4902F074F9DDE90E2387
:1059D00001F08EFE02460B4638464146CDE90E23C5
:1059E00002F0EEFA159001F0D1FF02460B46384660
:1059F000414601F07DFE159B039D303306460F4660
:105A0000024605F8013B0B46DDE90E0102F0B8FA4B
:105A1000002840F024850023CDE916B9CDF854A024
:105A20009846DDE90EABDDF848900E9428E0C845B5
:105A30004ADA5046594600226F4B02F011F8002214
:105A40006D4B82468B463046394602F009F80F46C8
:105A5000064602F0B5FA044601F098FF02460B46EE
:105A60003046394601F044FE303452465B4605F874
:105A7000014B06460F4602F065FA002840F0EC8420
:105A800032463B460020594901F032FE52465B4601
:105A900002F058FA08F101080028C8D0149BDDF87C
:105AA00054A00E9C039A089302E0954200F0BE8435
:105AB000A94615F8013D392BF7D00133DBB22B7025
:105AC000089B01330893A0E1DDF854A00E9CDDE9AA
:105AD00016B9199B002BC0F29380089A0E2A00F386
